{
  "contractName": "SoapBox",
  "abi": [
    {
      "inputs": [],
      "payable": false,
      "stateMutability": "nonpayable",
      "type": "constructor"
    },
    {
      "anonymous": false,
      "inputs": [
        {
          "indexed": false,
          "internalType": "address",
          "name": "_soapboxer",
          "type": "address"
        },
        {
          "indexed": false,
          "internalType": "string",
          "name": "_opinion",
          "type": "string"
        }
      ],
      "name": "OpinionBroadcast",
      "type": "event"
    },
    {
      "payable": true,
      "stateMutability": "payable",
      "type": "fallback"
    },
    {
      "constant": true,
      "inputs": [
        {
          "internalType": "address",
          "name": "_soapboxer",
          "type": "address"
        }
      ],
      "name": "isApproved",
      "outputs": [
        {
          "internalType": "bool",
          "name": "approved",
          "type": "bool"
        }
      ],
      "payable": false,
      "stateMutability": "view",
      "type": "function"
    },
    {
      "constant": true,
      "inputs": [],
      "name": "getCurrentOpinion",
      "outputs": [
        {
          "internalType": "string",
          "name": "",
          "type": "string"
        }
      ],
      "payable": false,
      "stateMutability": "view",
      "type": "function"
    },
    {
      "constant": false,
      "inputs": [
        {
          "internalType": "string",
          "name": "_opinion",
          "type": "string"
        }
      ],
      "name": "broadcastOpinion",
      "outputs": [
        {
          "internalType": "bool",
          "name": "success",
          "type": "bool"
        }
      ],
      "payable": false,
      "stateMutability": "nonpayable",
      "type": "function"
    }
  ],
  "bytecode": "0x608060405234801561001057600080fd5b506105b2806100206000396000f3fe6080604052600436106100345760003560e01c80635f1d90ae1461009d578063673448dd1461012d578063805c2b6c14610196575b66470de4df82000034111561009b5760016000803373ffffffffffffffffffffffffffffffffffffffff1673ffffffffffffffffffffffffffffffffffffffff16815260200190815260200160002060006101000a81548160ff0219169083151502179055505b005b3480156100a957600080fd5b506100b2610276565b6040518080602001828103825283818151815260200191508051906020019080838360005b838110156100f25780820151818401526020810190506100d7565b50505050905090810190601f16801561011f5780820380516001836020036101000a031916815260200191505b509250505060405180910390f35b34801561013957600080fd5b5061017c6004803603602081101561015057600080fd5b81019080803573ffffffffffffffffffffffffffffffffffffffff169060200190929190505050610318565b604051808215151515815260200191505060405180910390f35b3480156101a257600080fd5b5061025c600480360360208110156101b957600080fd5b81019080803590602001906401000000008111156101d657600080fd5b8201836020820111156101e857600080fd5b8035906020019184600183028401116401000000008311171561020a57600080fd5b91908080601f016020809104026020016040519081016040528093929190818152602001838380828437600081840152601f19601f82011690508083019250505050505050919291929050505061036d565b604051808215151515815260200191505060405180910390f35b606060018054600181600116156101000203166002900480601f01602080910402602001604051908101604052809291908181526020018280546001816001161561010002031660029004801561030e5780601f106102e35761010080835404028352916020019161030e565b820191906000526020600020905b8154815290600101906020018083116102f157829003601f168201915b5050505050905090565b60008060008373ffffffffffffffffffffffffffffffffffffffff1673ffffffffffffffffffffffffffffffffffffffff16815260200190815260200160002060009054906101000a900460ff169050919050565b60008060003373ffffffffffffffffffffffffffffffffffffffff1673ffffffffffffffffffffffffffffffffffffffff16815260200190815260200160002060009054906101000a900460ff16156104ce5781600190805190602001906103d69291906104d8565b507fcda4350c176dee701be26e34bb6ddef641e5f6847b5ff6ca83ccca7faa85ddaf336001604051808373ffffffffffffffffffffffffffffffffffffffff1673ffffffffffffffffffffffffffffffffffffffff168152602001806020018281038252838181546001816001161561010002031660029004815260200191508054600181600116156101000203166002900480156104b65780601f1061048b576101008083540402835291602001916104b6565b820191906000526020600020905b81548152906001019060200180831161049957829003601f168201915b5050935050505060405180910390a1600190506104d3565b600090505b919050565b828054600181600116156101000203166002900490600052602060002090601f016020900481019282601f1061051957805160ff1916838001178555610547565b82800160010185558215610547579182015b8281111561054657825182559160200191906001019061052b565b5b5090506105549190610558565b5090565b61057a91905b8082111561057657600081600090555060010161055e565b5090565b9056fea265627a7a7231582018d0922c9f8663d32230db97a0a21d5fb25d464f4af3cb2ca9e8efbbe73229e864736f6c63430005100032",
  "source": "pragma solidity ^0.5.16;\ncontract SoapBox {\n\t// Our 'dict' of addresses that are approved to share opinions\n\tmapping (address => bool) approvedSoapboxer;\n\tstring opinion;\n\n\t// Our event to announce an opinion on the blockchain\n\tevent OpinionBroadcast(address _soapboxer, string _opinion);\n\n\t// Constructor function. Name matches the contract\n\tconstructor() public {\n\t}\n\n\t// Because this function is 'payable' it will be called when ether is sent\n\t// to the contract address.\n\tfunction() external payable {\n\t\t// msg is a special variable that contains information about the\n\t\t// transaction.\n\t\tif (msg.value > 20000000000000000) {\n\t\t\t// if the value sent greater than 0.02 ether (in Wei)\n\t\t\t// then add the sender's address to approvedSoapboxer\n\t\t\tapprovedSoapboxer[msg.sender] = true;\n\t\t}\n\t}\n\n\t// Our read-only function that checks whether the specified address is\n\t// approved to post opinions. \n\tfunction isApproved(address _soapboxer) public view returns(bool approved) {\n\t\treturn approvedSoapboxer[_soapboxer];\n\t}\n\n\t// Read-only function that returns the current opinion.\n\tfunction getCurrentOpinion() public view returns(string memory) {\n\t\treturn opinion;\n\t}\n\n\t// Our function that modifies the state on the blockchain.\n\tfunction broadcastOpinion(string memory _opinion) public returns (bool success) {\n\t\t// Looking up the address of the sending will return false if the sender\n\t\t// isn't approved\n\t\tif (approvedSoapboxer[msg.sender]) {\n\t\t\topinion = _opinion;\n\t\t\temit OpinionBroadcast(msg.sender, opinion);\n\t\t\treturn true;\n\t\t} else {\n\t\t\treturn false;\n\t\t}\n\t}\n}\n",
  "sourcePath": "/Users/jycai/Documents/Dev/eth_playgrounds/smart_contract_playground/contracts/SoapBox.sol",
  "compiler": {
    "name": "solc",
    "version": "0.5.16+commit.9c3226ce.Emscripten.clang"
  },
  "schemaVersion": "3.4.3",
  "updatedAt": "2021-10-22T13:28:10.711Z",
  "devdoc": {
    "methods": {}
  },
  "userdoc": {
    "methods": {}
  }
}